:020000001528C1
:0C00060083120D088A000C08820008001C
:1000120003208A110A128000840A8C0A03198D0AAD
:08002200C003031D09280800BA
:10002A0083168501860102308312850061308600BD
:10003A001A30CB005E30CC006E30CD00CD0B2328B9
:10004A00CC0B2328CB0B232800000230850021305B
:10005A0086000630CB001330CC00AD30CD00CD0B7E
:10006A003428CC0B3428CB0B342800000000023093
:10007A008500613086000630CB001330CC00AD30ED
:10008A00CD00CD0B4628CC0B4628CB0B46280000CA
:10009A00000002308500213086000630CB00133084
:1000AA00CC00AD30CD00CD0B5828CC0B5828CB0B4B
:1000BA0058280000000002308500613086000630B2
:1000CA00CB001330CC00AD30CD00CD0B6A28CC0B61
:1000DA006A28CB0B6A280000000002308500203015
:1000EA0086000630CB001330CC00AD30CD00CD0BEE
:1000FA007C28CC0B7C28CB0B7C280000000002302B
:10010A008500613086000630CB001330CC00AD305C
:10011A00CD00CD0B8E28CC0B8E28CB0B8E28000061
:10012A00000002308500203086000630CB001330F4
:10013A00CC00AD30CD00CD0BA028CC0BA028CB0B2A
:10014A00A0280000000002308500A23086000B3093
:10015A00CB002630CC005D30CD00CD0BB228CC0BC5
:10016A00B228CB0BB22800000000013085008C3089
:10017A0086001A30CB005E30CC006E30CD00CD0B3D
:10018A00C428CC0BC428CB0BC428000085018C30B2
:10019A0086000630CB001330CC00AD30CD00CD0B3D
:1001AA00D428CC0BD428CB0BD42800000000013073
:1001BA0085008C3086000630CB001330CC00AD3081
:1001CA00CD00CD0BE628CC0BE628CB0BE6280000A9
:1001DA00000085018C3086000630CB001330CC003D
:1001EA00AD30CD00CD0BF728CC0BF728CB0BF72879
:1001FA0000000000013085008C3086000630CB00FC
:10020A001330CC00AD30CD00CD0B0929CC0B092918
:10021A00CB0B0929000000008501843086000630D6
:10022A00CB001330CC00AD30CD00CD0B1A29CC0B4E
:10023A001A29CB0B1A2900000000013085008C30E6
:10024A0086000630CB001330CC00AD30CD00CD0B8C
:10025A002C29CC0B2C29CB0B2C2900000000850162
:10026A00843086000630CB001330CC00AD30CD0090
:10027A00CD0B3D29CC0B3D29CB0B3D2900000000BD
:10028A0002308500943086000B30CB002630CC003B
:10029A005D30CD00CD0B4F29CC0B4F29CB0B4F290D
:0802AA0000000000182858298B
:02400E00FA3F77
:00000001FF
